:020000040000fa
:080000000002040000000000f2
:020000040000fa
:100400000f802000807f2200000188000000000093
:10041000050007000c000700800202000000000039
:100420000040da000000fe004440a9000000200067
:100430000000e0000300320000002000a00188005e
:100440004440a80000000600604320000100200096
:100450001600370062004000e080480091018800eb
:100460009001ba0062004000e080480091018800dd
:100470009002ba0062004000e08048000002eb00f9
:100480006028e10005003a008301e900070033001d
:10049000038009000059eb00040037006128e100e7
:1004a000010032000082eb00050007009101880086
:1004b0001001ba000200e000e6ff3a00000005006b
:1004c000910188008002780062004000e0804800ce
:1004d0003559ba008301e900080032002559ba00f5
:1004e0008301e900050032000400e000f4ff32005f
:1004f00015d9ba008301e900f1ff3a0000000600b7
:100500000200fa00c002a900c022a900c042a9004e
:10051000c062a900c082a900c0a2a900c0c2a900ef
:100520000000eb00000f780000003700d4c2bf00cd
:1005300001c8b300014060000004e000fbff3a0086
:10054000c402a8000000eb00000f78000100370093
:100550001e0fe800703e20009e0f1000fcff3400cc
:10056000c422a8000000eb00000f78000100370053
:100570001e0fe800703e20009e0f1000fcff3400ac
:10058000c402a9000000eb00000f78000100370052
:100590001e0fe800f0e124009e0f1000fcff340065
:1005a000c442a8000000eb00000f780001003700f3
:1005b0001e0fe800703e20009e0f1000fcff34006c
:1005c000c422a9000000eb00000f780001003700f2
:1005d0001e0fe800703e20009e0f1000fcff34004c
:1005e000c462a8000000eb00000f78000100370093
:1005f0001e0fe800f0e124009e0f1000fcff340005
:10060000c442a9000000eb00000f78000100370091
:100610001e0fe800703e20009e0f1000fcff34000b
:10062000c482a8000000eb00000f78000100370032
:100630001e0fe800703e20009e0f1000fcff3400eb
:10064000c462a9000000eb00000f78000100370031
:100650001e0fe800f0e124009e0f1000fcff3400a4
:10066000c4a2a8000000eb00000f780001003700d2
:100670001e0fe800703e20009e0f1000fcff3400ab
:10068000c482a9000000eb00000f780001003700d1
:100690001e0fe800f0e124009e0f1000fcff340064
:1006a000c4a2a9000000eb00000f78000100370091
:1006b0001e0fe800703e20009e0f1000fcff34006b
:1006c000c4c2a8000000eb00000f78000100370052
:1006d0001e0fe800f0e124009e0f1000fcff340024
:1006e000c4a2a8000000eb00000f78000100370052
:1006f0001e0fe800f0e124009e0f1000fcff340004
:10070000c4c2a900c482a800c4a2a9000000eb00d2
:10071000000f7800010037001e0fe800703e200037
:100720009e0f1000fcff3400c462a8000000eb0024
:10073000000f7800010037001e0fe800f0e12400f0
:100740009e0f1000fcff3400c482a9000000eb00e3
:10075000000f7800010037001e0fe800703e2000f7
:100760009e0f1000fcff3400c442a8000000eb0004
:10077000000f7800010037001e0fe800f0e12400b0
:100780009e0f1000fcff3400c462a9000000eb00c3
:10079000000f7800010037001e0fe800703e2000b7
:1007a0009e0f1000fcff3400c422a8000000eb00e4
:1007b000000f7800010037001e0fe800f0e1240070
:1007c0009e0f1000fcff3400c402a8000000eb00e4
:1007d000000f7800010037001e0fe800703e200077
:1007e0009e0f1000fcff3400c402a9000000eb00c3
:1007f000000f7800010037001e0fe800f0e1240030
:100800009e0f1000fcff3400c442a9000000eb0062
:10081000000f7800010037001e0fe800f0e124000f
:100820009e0f1000fcff3400c422a9000000eb0062
:10083000000f7800010037001e0fe800f0e12400ef
:100840009e0f1000fcff3400c402a9000000eb0062
:10085000000f7800010037001e0fe800703e2000f6
:0c0860009e0f1000fcff340030ff37003a
:020000040000fa
:020000040002f8
:04aff800befa00009d
:020000040000fa
:020000040002f8
:04affc007fbf000013
:020000040000fa
:1000080038040000380400003804000038040000f8
:1000180038040000380400003804000038040000e8
:1000280038040000380400003804000038040000d8
:1000380038040000380400003804000038040000c8
:020000040000fa
:020000040000fa
:04086c000000000088
:020000040000fa
:040870000000fe0086
:00000001FF
