:020000040000fa
:080000000002040000000000f2
:020000040000fa
:100400000f802000807f2200000188000000000093
:10041000050007000c00070016060200000000009f
:100420000040da000000fe004440a9000000200067
:100430000000e0000300320000002000a00188005e
:100440004440a80000000600606d2000010020006c
:100450001600370062004000e080480091018800eb
:100460009001ba0062004000e080480091018800dd
:100470009002ba0062004000e08048000002eb00f9
:100480006028e10005003a008301e900070033001d
:10049000038009000059eb00040037006128e100e7
:1004a000010032000082eb00050007009101880086
:1004b0001001ba000200e000e6ff3a00000005006b
:1004c000910188008002780062004000e0804800ce
:1004d0003559ba008301e900080032002559ba00f5
:1004e0008301e900050032000400e000f4ff32005f
:1004f00015d9ba008301e900f1ff3a0000000600b7
:10050000889fbe008a9fbe00010578000100e000c0
:100510000400350008003c000000e000200032002c
:100520000500370060001000e080180002003b006a
:1005300001f02c001a0037000004be006011b80062
:100540006b0920000982cf00020039000882cf0029
:100550000441b000694252000e00320008003b0026
:1005600082817100610164008904d1000884d30094
:100570008b05e8000442e800f9ff3a000500370067
:100580000804440089844c008b05e9000442e9001a
:10059000fbff3a00f40007000af0a70001f0a000fa
:1005a0004f05be004f04be000000060003f0a2008d
:1005b000889fbe008a9fbe008c1f78001001070034
:1005c000170133006450e1004f0032006420e10065
:1005d0005200320003826c0007003b000905d00086
:1005e0000306d000820f54000c065d0002003900a3
:1005f00002003200890178000306780085825500e8
:1006000004003d000003fd008103fd008502ea00b7
:100610008b854200840f720002003b0060001000d6
:10062000e08018006011b8000005eb007a28e100b6
:100630000a00390006007800c75ddd00f707b20048
:10064000878075002d003700828171000a017800d3
:10065000610560008180d1000080d3008502e9003f
:10066000f9ff3b00060440008784480002003b007d
:1006700060041400e0841c000988a3000700320015
:100680008a81710082817100610164008904d10056
:100690000884d3008b05e800170037000978a30011
:1006a00013003a000b00e000130034008b05e90052
:1006b0000804440089844c000a4474000978a300ab
:1006c0000d003a000b00e000070034008b05e90044
:1006d0000804440089844c0001003a000b0020000b
:1006e0000978a300f7ff32000001eb000200370099
:1006f000828171000a0178009b0007000cf0a700be
:1007000001f0a000cf0037006420e10002003a00b1
:10071000838f6c00cf0033000801be000200be00d2
:10072000c8003700889fbe008a9fbe008c1f7800db
:10073000b3000700ba00330003866c006450e10088
:10074000240032006420e100270032006150e10003
:10075000220032006120e100210032008b8542003e
:10076000eb07b1000134b800003ab80008044200b9
:1007700089844a00013ab8000030b80088804000ff
:1007800009014a0004003300000040008180480055
:10079000020149008b05e900c909dd0083017000f1
:1007a0000100320013002000c814de004814dd00f0
:1007b0004709de001200b200c808de00088470009d
:1007c0006900070001f0a1000cf0a70001f0a000f3
:1007d0009c0037006120e1009e0032000801be004d
:1007e0000200be00f7ff37006150e100fcff3a0055
:1007f00098003700889fbe008a9fbe008c1f78003b
:100800007f0007008600330003866c006450e1001f
:100810002e0032006420e100330032006150e1001c
:100820002f0032006120e100310032008585550043
:10083000eb07b00009002000080420000500370085
:100840000804440089844c000a0031000603430078
:1008500087834b000001530081815b00f8ff330068
:100860000203be000800a0000804440089844c0074
:10087000f6ff3900c639dd00830173000100320044
:10088000130020008904d1000884d3000998a30034
:10089000050032000800a7000300a0008904d10071
:1008a0000884d3008b05e8008904d1000884d300b4
:1008b0000001eb000281d2002b00070001f0a10033
:1008c0000cf0a70001f0a0005e0037006420e100fa
:1008d000600032000801be000200be00f7ff3700d2
:1008e0006120e1005b0032006000b800f3ff3700d8
:1008f0000000200001f82700f0ff37000001be00d3
:10090000570007000470a70003f0a10003f8a3003c
:1009100013003a006509b1001000320009003500eb
:100920006928e100020035000100280000000500f0
:1009300000004000818048008502e900fcff3a0089
:1009400000000600f88f4200050035008100d1004c
:100950000080d3008502e800fcff3a00000006009a
:100960008000eb0000000500810020006180550040
:100970000b003d000b00200061fe2f000100e10094
:100980001d00340082817100610164008904d1007e
:100990000884d3000000e800faff3a00710020004c
:1009a0006100640003007000020060000900320072
:1009b00061044400e0844c000988a5000500320071
:1009c0008b05e8006808e10002003a008904d100c4
:1009d0000884d300f20f20000258e10005003d001a
:1009e000c75ddd00f907b200898075000800780056
:1009f000000006000bf827008b00780000000500bf
:100a00000004be00160007000003be000405be007f
:100a10000200be0012000700844f750000000600af
:100a20000200be006450e100050036006420e100d1
:100a3000020036000968a30001003a000800be0069
:100a40000160a0004f0678004f05be004f04be00b5
:100a500000000600f0ff2f00f1ff2700f9ff37002c
:100a6000c70ade00f107b200f50fb200080032003d
:100a7000e1cf4200020032000170a0002400050016
:100a8000810f7000010032000408050044000500d9
:100a9000810f700002003a00140005008502e90091
:100aa0000000400081c04800fcff3b000170a00036
:100ab000240005000000fa00dea2a900de82a800e2
:100ac00090012000c01188000000eb008011880018
:100ad0000000eb009011880031e2a8003342a8002a
:100ae00087c0a9000080fa00000006000200fa009a
:100af000004f780033c2bf00624060000004e00095
:100b0000fcff3a001e00fb00a01188000080fa00e4
:100b1000000006000200fa0087c0bf000044b200d7
:100b20000004e0000300320010002000000f7800f5
:100b3000020037000000eb00000f78001e00780074
:100b40000080fa00000006000200fa0087c0bf0023
:100b50000044b2000004e000fcff3200b01180004d
:100b6000004f780087c0a9001e00fb000080fa003b
:100b7000000006000400fa00204798002e40900074
:100b8000004f780030c6b3009e4f100006003600bc
:100b90001e80fb0042062000110009000280d800e0
:100ba0000043b000d1ff07009e4178001e80fb008b
:100bb00042062000110009000280d8008080fb005e
:100bc000400620000088b90000c05100004f7800a6
:100bd00090c0b3009e4f1000060036001e80fb0040
:100be000a2002000110009000280d8000043b000dc
:100bf000beff07009e4178001e80fb00a20020007f
:100c0000110009000280d8000080fb006a00b900d2
:100c100000c05100004f78001e4078000043b00033
:100c2000b2ff07000080fa00000006001e00fa0074
:100c30000000eb002007980050000700000037007c
:100c40002f00070032000700200798002e009000b8
:100c5000cf80de002afe0700500f9800610f980039
:100c60002e0090000000e00007003d000200200080
:100c7000037824005e089000ee0890004cfe070008
:100c8000500f9800610f980002002000030a240012
:100c90005e089000ee089000a2fe0700020020000f
:100ca00003482400d3fe0700008fbe0081ff070029
:100cb00098ff07000004e000e1ff32001e00be00c4
:100cc0000eff0700abff0700ddff37000000fa0052
:100cd00020c3bf000004a2000000fb006100600010
:100ce0000080fa00000006000200fa00000f780001
:100cf0001e007800401988000080fa0000000600fd
:100d00000000fa002023a9000080fa00000006007d
:100d10000200fa0050002000401988002023a8009b
:100d20000000eb00000f7800020037000000000018
:100d30001e0fe800703e20009e0f1000fbff3400e5
:100d4000efff07000000eb00000f78000200370003
:100d5000000000001e0fe800703e20009e0f1000f3
:100d6000fbff3400d9ff07000004e000fdff3a005c
:100d7000001880000080fa00000006000000fa0061
:100d80002ca3a9002c83a9000000eb0010198800f7
:100d90000000eb00001988000000eb0080198800bb
:0c0da00021e3a8000080fa00000006001b
:020000040000fa
:020000040002f8
:04aff800befa00009d
:020000040000fa
:020000040002f8
:04affc007fbf000013
:020000040000fa
:10000800d8060000d8060000d8060000d806000070
:10001800d8060000d8060000d8060000d806000060
:10002800d8060000d8060000d8060000d806000050
:10003800d8060000d8060000d8060000d806000040
:020000040000fa
:020000040000fa
:040dac000000000043
:020000040000fa
:040db0000000fe0041
:00000001FF
